S00B00006F62632E73726563E5
S11300004DC700006CC700006AC7000068C7000045
S113001066C7000064C7000062C7000060C7000034
S11300205EC700005CC700005AC7000058C7000044
S113003056C7000054C7000052C7000050C7000054
S11300404EC700000C94BD0A4AC7000048C7000010
S113005046C7000044C7000042C7000040C7000074
S11300603EC700003CC700003AC7000038C7000084
S113007036C7000034C7000032C7000030C7000094
S11300802EC700002CC700002AC7000028C70000A4
S113009026C7000024C7000022C700000C9435279F
S11300A01EC700001CC700001AC7000018C70000C4
S11300B016C7000014C7000012C7000010C70000D4
S11300C00EC700000CC700000AC7000008C70000E4
S11300D006C7000004C7000002C7000000C70000F4
S11300E0FEC600008B147314761479147C147F14E8
S11300F082148514981B9A1BA41B9C1B9E1BA01B7B
S1130100A21B7D286A296A296A296A296A296A2917
S11301106A297D286A296A296A296A296A296A2931
S11301206A29AB286A296A296A296A296A296A29F3
S11301306A29D7286A296A296A296A296A296A29B7
S11301406A29AB286A296A296A296A296A296A29D3
S11301506A29D7286A296A296A296A296A296A2997
S11301606A2904296A296A296A296A296A296A2959
S11301706A2915296A296A296A296A296A296A2938
S11301806A294A296A296A296A296A296A296A29F3
S11301906A291F296A296A296A296A296A296A290E
S11301A06A2951296A296A296A296A296A296A29CC
S11301B06A29B3276A296A296A296A296A296A295C
S11301C06A29B3276A296A296A296A296A296A294C
S11301D06A296A296A296A296A296A296A296A2983
S11301E06A296A296A296A296A296A296A296A2973
S11301F06A29BD276A296A296A296A296A296A2912
S11302006A29BD276A296A296A296A296A296A2901
S11302106A296A296A296A296A296A296A296A2942
S11302206A296A296A296A296A296A296A296A2932
S11302306A29F2276A296A296A296A296A296A299C
S11302406A2960276A296A296A296A296A296A291E
S11302506A2960276A296A296A296A296A296A290E
S11302606A2960276A296A296A296A296A296A29FE
S11302706A29A5276A296A296A296A296A296A29A9
S11302806A29A5275B253032755D2025733A2564DC
S113029020506F73743A202570005B253032755DF1
S11302A02025733A256420576169743A202570002B
S11302B01B5B25753B25756D005B253032755D2014
S11302C025733A256420465245453A202570005B43
S11302D0253032755D2025733A2564204652454504
S11302E03A2042756666657220257020696E207515
S11302F07365206279202575207573657273005BC0
S1130300253032755D2025733A25642046524545D3
S11303103A2042756666657220616C726561647923
S11303202066726565202570005B253032755D207E
S113033025733A256420465245453A20496E766134
S11303406C69642043535020627566666572207040
S11303506F696E746572202570005B253032755D9F
S11303602025733A256420465245453A20556E614E
S11303706C69676E656420435350206275666665D8
S11303807220706F696E746572202570005B253071
S113039032755D2025733A256420417474656D704F
S11303A07420746F2066726565206E756C6C2070A5
S11303B06F696E746572005B253032755D2025733C
S11303C03A256420436F7272757074204353502031
S11303D0627566666572005B253032755D20257333
S11303E03A2564204745543A202570202570005B47
S11303F0253032755D2025733A2564204F757420AD
S11304006F662062756666657273005B25303275AF
S11304105D2025733A256420417474656D707420E1
S1130420746F20616C6C6F6361746520746F6F20EE
S11304306C6172676520626C6F636B202575005B6D
S1130440253032755D2025733A2564204174746526
S11304506D707420746F20637265617465204352FB
S11304604333322076616C69646174656420636F20
S11304706E6E656374696F6E2C20627574204353CD
S1130480502077617320636F6D70696C65642077A9
S11304906974686F757420435243333220737570E6
S11304A0706F7274005B253032755D2025733A25B8
S11304B06420417474656D707420746F2063726578
S11304C0617465205854454120656E637279707477
S11304D0656420636F6E6E656374696F6E2C206251
S11304E07574204353502077617320636F6D706976
S11304F06C656420776974686F757420585445413D
S113050020737570706F7274005B253032755D20D6
S113051025733A256420417474656D707420746F7A
S11305202063726561746520484D41432061757490
S113053068656E7469636174656420636F6E6E656B
S11305406374696F6E2C2062757420435350207756
S1130550617320636F6D70696C656420776974687A
S11305606F757420484D414320737570706F7274B9
S1130570005B253032755D2025733A256420417473
S113058074656D707420746F206372656174652086
S113059052445020636F6E6E656374696F6E2C20D5
S11305A0627574204353502077617320636F6D70BC
S11305B0696C656420776974686F7574205244505F
S11305C020737570706F7274005B253032755D2016
S11305D025733A2564204661696C656420746F2034
S11305E06C6F636B20636F6E6E2061727261790051
S11305F05B253032755D2025733A256420436F6E88
S11306006E20616C726561647920636C6F736564DC
S1130610005B253032755D2025733A2564204E55E4
S11306204C4C20506F696E74657220676976656EF4
S113063020746F206373705F636C6F7365005B2558
S11306403032755D2025733A2564204E6F206D6F1E
S11306507265206672656520636F6E6E656374698A
S11306606F6E73005B253032755D2025733A256407
S1130670204661696C656420746F206C6F636B2025
S1130680636F6E6E206172726179005B2530327522
S11306905D2025733A2564204E6F206D6F726520AE
S11306A06D656D6F727920666F7220636F6E6E2058
S11306B073656D6170686F7265005B253032755DBE
S11306C02025733A2564204661696C656420746F43
S11306D02063726561746520636F6E6E656374690F
S11306E06F6E206C6F636B005B253032755D202567
S11306F0733A2564204E6F206D6F7265206D656DB1
S11307006F727920666F722073706F7274207365D4
S11307106D6170686F7265005B253032755D2025F0
S1130720733A2564205258207175657565202570CB
S11307302066756C6C20776974682025752069744F
S1130740656D73000D0A005B253032755D202573DD
S11307503A2564205265706C79206C656E67746804
S1130760202575206578706563746564202575009F
S11307705B253032755D2025733A256420496E76F9
S1130780616C69642063616C6C20746F20637370A6
S11307905F73656E64005B253032755D2025733AA6
S11307A0256420417474656D707420746F207365C2
S11307B06E64205854454120656E63727970746587
S11307C064207061636B65742C20627574204353DC
S11307D0502077617320636F6D70696C6564207756
S11307E06974686F7574205854454120737570702E
S11307F06F72742E2044697363617264696E67203A
S11308007061636B6574005B253032755D20257300
S11308103A256420417474656D707420746F20737C
S1130820656E64207061636B6574207769746820F9
S113083043524333322C2062757420435350207743
S1130840617320636F6D70696C6564207769746887
S11308506F757420435243333220737570706F7216
S1130860742E2053656E64696E6720776974686FAF
S1130870757420435243333272005B253032755D08
S11308802025733A256420417474656D7074207456
S11308906F2073656E64207061636B657420776983
S11308A0746820484D41432C206275742043535092
S11308B02077617320636F6D70696C65642077695C
S11308C074686F757420484D414320737570706F60
S11308D072742E2044697363617264696E67207058
S11308E061636B6574005B253032755D2025733A56
S11308F02564204F55543A20532025752C2044203C
S113090025752C2044702025752C205370202575C6
S11309102C2050722025752C20466C2030782530F0
S113092032582C20537A202575205649413A2025E7
S113093073005B253032755D2025733A2564204EA3
S11309406F20726F75746520746F20686F73743ACA
S1130950202523303878005B253032755D202573DF
S11309603A2564206373705F73656E645F646972B3
S11309706563742063616C6C6564207769746820B6
S11309804E554C4C207061636B6574005B253032AE
S1130990755D2025733A2564204552524F523A2002
S11309A0526F7574696E6720696E7075742046495C
S11309B0464F2069732046554C4C2E2044726F706C
S11309C070696E67207061636B65742E005B2530FF
S11309D032755D2025733A2564206373705F6E65FC
S11309E077207061636B65742063616C6C6564204F
S11309F077697468204E554C4C20696E7465726634
S1130A00616365005B253032755D2025733A25648A
S1130A10206373705F6E6577207061636B6574200B
S1130A2063616C6C65642077697468204E554C4C26
S1130A30207061636B6574005B253032755D202521
S1130A40733A2564204661696C656420746F207371
S1130A507461727420726F75746572207461736B43
S1130A60005B253032755D2025733A25642052657C
S1130A70636569766564207061636B65742077696A
S1130A8074682043524333322C20627574204353DC
S1130A90502077617320636F6D70696C6564207793
S1130AA06974686F757420435243333220737570D0
S1130AB0706F72742E20416363657074696E672071
S1130AC07061636B6574005B253032755D2025733E
S1130AD03A25642052656365697665642052445002
S1130AE0207061636B65742C2062757420435350CD
S1130AF02077617320636F6D70696C65642077691A
S1130B0074686F75742052445020737570706F72DE
S1130B10742E2044697363617264696E6720706126
S1130B20636B6574005B253032755D2025733A254F
S1130B3064205265636569766564207061636B65E2
S1130B4074207769746820484D41432C2062757481
S1130B50204353502077617320636F6D70696C6517
S1130B606420776974686F757420484D414320731D
S1130B707570706F72742E20446973636172646956
S1130B806E67207061636B6574005B253032755D40
S1130B902025733A2564205265636569766564206F
S1130BA05854454120656E63727970746564207091
S1130BB061636B65742C20627574204353502077F5
S1130BC0617320636F6D70696C6564207769746804
S1130BD06F7574205854454120737570706F72742A
S1130BE02E2044697363617264696E672070616367
S1130BF06B6574005B253032755D2025733A25647E
S1130C00204E6F206D6F726520636F6E6E65637426
S1130C10696F6E7320617661696C61626C65005BFB
S1130C20253032755D2025733A256420436F6E6E3E
S1130C302D6C65737320736F636B657420717565B8
S1130C4075652066756C6C005B253032755D2025FA
S1130C50733A256420526F75746572206661696CFD
S1130C60656420746F2073656E64005B2530327593
S1130C705D2025733A256420494E503A205320259F
S1130C80752C20442025752C2044702025752C209B
S1130C9053702025752C2050722025752C20466C0D
S1130CA0203078253032582C20537A202575205650
S1130CB049413A202573002020202A2020252D395F
S1130CC073202025750D0A002534752020252D3923
S1130CD073202025750D0A004E6F64652020496E2F
S1130CE07465726661636520204164647265737320
S1130CF00D0A005B253032755D2025733A2564208A
S1130D004661696C656420746F2073657420726F2A
S1130D107574653A20696E76616C6964206E6F64DF
S1130D2065206964202575005B253032755D2025BA
S1130D30733A2564205761726E696E6720736F631E
S1130D406B657420636F6E6E656374696F6E20717A
S1130D50756575652066756C6C005B253032755D54
S1130D602025733A256420436F6E6E656374696F42
S1130D706E2062756666657220717565756520669C
S1130D80756C6C210050696E67202D2D20466169B9
S1130D906C65640D0A0050696E67202D2D2054691E
S1130DA06D656F75740D0A005265706C793A202573
S1130DB0732C204C656E6774683A2025640D0A0D07
S1130DC00A0050696E67202D2D2053756363657387
S1130DD0730D0A000A68004572726F723A20693214
S1130DE06320746F6F206C6F6E67200D0A0051557D
S1130DF04555452073656E64206661696C0D0A0073
S1130E004465766963652069732049324320736CB5
S1130E106176652C20736F2069742063616E6E6F38
S1130E207420696E69746961746520612049324374
S1130E30206672616D650D0A002D2D2D2D2D2D2D31
S1130E402D2D2D2D204550533A204175746F6E6F12
S1130E506D6F7573204D6F6465202D2D2D2D2D2DF7
S1130E602D2D2D2D2D000D0A002D2D2D2D2D2D2D4B
S1130E702D2D2D2D204550533A20496E69746961FA
S1130E806C697A6174696F6E204D6F6465202D2DD5
S1130E902D2D2D2D2D2D2D2D2D0D0A0011241FBE90
S1130EA0CFEFD1E2DEBFCDBF00E00CBF13E0A0E086
S1130EB0B2E0E4E2FFE500E00BBF02C007900D9250
S1130EC0A23FB107D9F720E2A2EFB3E001C01D921F
S1130ED0AE32B207E1F70E94272B0C94902F90C8F2
S1130EE0FC010396928381834FEF5FEFBA01438342
S1130EF05483658376839087878392878187108262
S1130F000895FC01138612860895CF93DF939C0104
S1130F10FB01DC011196CD91DC911297D583C4833A
S1130F208E819F81978386838E819F81DC011596B4
S1130F307C936E9314977F836E8333872287F901A2
S1130F4080818F5F8083DF91CF9108950F931F93EA
S1130F50CF93DF93EB01088119812A813B810F3FF5
S1130F604FEF14072407340721F4FC01A185B2854F
S1130F7011C0DC01139601C0DF011496ED91FC91C0
S1130F8015974081518162817381041715072607E3
S1130F90370790F71496ED91FC911597FD83EC8338
S1130FA0D783C683BF83AE831596DC93CE93149701
S1130FB09B878A87FC0120812F5F2083DF91CF915B
S1130FC01F910F910895CF93DF93FC01A285B38500
S1130FD0C481D581868197819F838E83C681D78181
S1130FE0848195819D838C8311968D919C91129718
S1130FF0E817F90731F48681978112969C938E93B2
S11310001197138612868C9181508C93DF91CF9126
S11310100895CF93DF93DC01EAEFF3E001C0F90117
S1131020208131812A173B07D0F382819381AF015C
S1131030480F591FA417B50749F412964D915C91B6
S11310401397840F951F93838283DF0112968D91EA
S11310509C911397ED01C80FD91F2C173D07D9F4A4
S11310602091F8033091F903C217D30781F02A8144
S11310703B81820F931F13969C938E931297C0818A
S1131080D1818881998111969C938E9307C0119682
S1131090DC93CE9303C011963C932E93AE17BF07F7
S11310A011F0B183A083DF91CF910895CF92DF92A5
S11310B0EF92FF920F931F93CF93DF93EC01A6D788
S11310C08091F8039091F903892B99F5AAEFB3E085
S11310D04EEF53E011965C934E9313961C921E921E
S11310E01297CA01052E000CAA0BBB0B805A964E10
S11310F0AF4FBF4F9C019093F9038093F803FC0119
S113110013821282118210822E5F3340FA013383DC
S11311102283918380833093F5032093F4033093E7
S1131120F7032093F60380E090E89093F303809311
S1131130F203E090F203F090F303C7018C239D23A4
S1131140892B09F05EC0209709F45EC0AE014C5FA4
S11311505F4F09F45CC00091F6031091F703041784
S1131160150708F457C0C091FA03D091FB03EAEFC6
S1131170F3E002C0FE01E9012A813B81241735070F
S113118028F42881398121153105A1F78091F803CC
S11311909091F903C817D90709F43FC0C080D180E2
S11311A084E0C80ED11C88819981918380832A812F
S11311B03B81241B350B2930310548F0CE01840FC7
S11311C0951FFC01338322835B834A8322DF8A8158
S11311D09B81081B190B1093F7030093F6032091CE
S11311E0F4033091F5030217130720F41093F50369
S11311F00093F403E82AF92AFB82EA82198218820E
S11312000EC0C12CD12C0BC0C12CD12C08C0C12CB8
S1131210D12C05C0C12CD12C02C0C12CD12CDFD7BC
S1131220C601DF91CF911F910F91FF90EF90DF9056
S1131230CF900895CF93DF93009741F1FC01349749
S1131240228133814091F2035091F303B901642365
S11312507523672BD9F060817181672BB9F4EF0195
S1131260409550952423352333832283CFD6209170
S1131270F6033091F7038A819B81820F931F909329
S1131280F7038093F603CE01C4DEA9D7DF91CF9193
S1131290089531E1FC013083319722E220833197B4
S11312A0A3E3A083319760833197708331971082D1
S11312B031971082319760E86083319710823197BB
S11312C0108231971082319762E06083319763E036
S11312D06083319764E06083319765E06083319780
S11312E066E06083319767E06083319768E06083EC
S11312F0319769E06083319760E16083319730838F
S1131300319732E13083319733E13083319734E1DF
S11313103083319735E13083319736E1308331972B
S113132037E13083319738E13083319739E13083C5
S1131330319730E23083319731E230833197208323
S1131340319723E22083319740833197508331973B
S113135026E22083319727E22083319728E22083F5
S1131360319729E22083319720E32083319721E3C9
S11313702083899708951092890089EF80938800CB
S1131380109280008BE080938100EFE6F0E0808192
S113139082608083A091E71DB091E81DCD91CDBFFF
S11313A0DD91DEBFFF91EF91DF91CF91BF91AF91BE
S11313B09F918F917F916F915F914F913F912F9169
S11313C01F910F91FF90EF90DF90CF90BF90AF905F
S11313D09F908F907F906F905F904F903F902F9051
S11313E01F900F900CBE0F900BBE0F900FBE0F906E
S11313F0089581E008950F920FB6F8940F920BB6FA
S11314000F920CB60F921F9211242F923F924F927B
S11314105F926F927F928F929F92AF92BF92CF9280
S1131420DF92EF92FF920F931F932F933F934F936B
S11314305F936F937F938F939F93AF93BF93CF9358
S1131440DF93EF93FF93A091E71DB091E81D0DB6D4
S11314500D920EB60D9290D7A091E71DB091E81DA4
S1131460CD91CDBFDD91DEBFFF91EF91DF91CF91A3
S1131470BF91AF919F918F917F916F915F914F91A8
S11314803F912F911F910F91FF90EF90DF90CF909C
S1131490BF90AF909F908F907F906F905F904F9090
S11314A03F902F901F900F900CBE0F900BBE0F908B
S11314B00FBE0F9008950F920FB6F8940F920BB6CB
S11314C00F920CB60F921F9211242F923F924F92BB
S11314D05F926F927F928F929F92AF92BF92CF92C0
S11314E0DF92EF92FF920F931F932F933F934F93AB
S11314F05F936F937F938F939F93AF93BF93CF9398
S1131500DF93EF93FF93A091E71DB091E81D0DB613
S11315100D920EB60D928ED581112ED7A091E71D96
S1131520B091E81DCD91CDBFDD91DEBFFF91EF916C
S1131530DF91CF91BF91AF919F918F917F916F91E7
S11315405F914F913F912F911F910F91FF90EF90D9
S1131550DF90CF90BF90AF909F908F907F906F90CF
S11315605F904F903F902F901F900F900CBE0F9064
S11315700BBE0F900FBE0F9008959DDF18950F932B
S11315801F93CF93DF93EC01042F1E8D48A14111CB
S11315900CC088819981892B09F042C08A819B8182
S11315A00E9445131B821A8242C0011117C050E0E9
S11315B08C819D810E94302C28A18C819D81820F79
S11315C0911D9D838C832A813B818217930750F15F
S11315D0888199819D838C8380E029C050E08E812D
S11315E09F810E94302C88A190E09195819591096A
S11315F02E813F81280F391F3F832E8348815981D3
S11316002417350730F42A813B81820F931F9F836F
S11316108E83023049F4112349F0115080E007C051
S113162080E005C080E003C080E001C080E01F5F6F
S11316301E8FDF91CF911F910F910895FC0140A15E
S11316404423A9F050E026813781240F351F3783C6
S11316502683828193812817390720F08081918124
S113166097838683CB01668177810C94302C08950F
S1131670EF92FF920F931F93CF938C010FB6F894C0
S11316800F92FC01C2A11C169CF48389811106C02F
S11316900FC0F8018389811105C00AC07801F3E104
S11316A0EF0EF11CC701D6D681118DD7C15089F731
S11316B08FEFF80182A30F900FBE0FB6F8940F922C
S11316C0C1A11C169CF48085811106C00FC0F801CD
S11316D08085811105C00AC07801F8E0EF0EF11C85
S11316E0C701B8D681116FD7C15089F78FEFF801C0
S11316F081A30F900FBECF911F910F91FF90EF9098
S11317000895CF93DF93EC010FB6F8940F924881BC
S1131710598128A130E07F8D729FC001739F900D85
S11317201124FA01E80FF91FFB83EA831E8E5D83FF
S11317304C83821B930B840F951F9F838E838FEFA3
S113174089A38AA361110AC08885882369F0CE0120
S1131750089680D6882341F04EDE06C0CE01089656
S1131760BFDBCE014396BCDB0F900FBE81E0DF915F
S1131770CF910895FF920F931F93CF93DF93082F78
S1131780162FF42E6623B9F0869FC0011124859686
S11317908DDCEC01009741F414C00F8F18A361E0B5
S11317A0CE01AFDFFCA20DC0859699838883F5CF67
S11317B0D983C883F2CF85E290E078DCEC01892BF1
S11317C0B9F7CE01DF91CF911F910F91FF9008954A
S11317D09F92AF92BF92CF92DF92EF92FF920F93BC
S11317E01F93CF93DF93CDB7DEB729970FB6F89445
S11317F0DEBF0FBECDBF7C015B012E833F834887D4
S1131800598710E0992493946C0188E0C80ED11C88
S11318100FB6F8940F92F701968D878D981710F0F4
S11318200230A9F4402FB501C701A9DEF70193895D
S1131830992339F0C70143960DD6882321F0DBDDC7
S113184002C08111D8DD0F900FBE81E04BC08E81A4
S11318509F81A885B985892B8A2B8B2B21F40F9026
S11318600FBE80E03FC0111104C0CE01019634D6F2
S1131870192D0F900FBECAD30FB6F8940F92F7012B
S113188081A18F3F09F411A2F70182A18F3F09F4CE
S113189012A20F900FBEBE016A5F7F4FCE01019668
S11318A02CD681111BC00FB6F8940F92F701968DB8
S11318B00F900FBE878D98130DC04E815F81688590
S11318C07985C601B0D5C701D3DE89D48111A0CFF3
S11318D092DD9ECFC701CCDE82D49ACFC701C8DE89
S11318E07ED480E029960FB6F894DEBF0FBECDBF3C
S11318F0DF91CF911F910F91FF90EF90DF90CF90E8
S1131900BF90AF909F9008950F93CF93DF93482F8C
S113191060E081E02FDFEC01009761F01B821A8206
S1131920198218821E8200E020E030E0A90160E004
S113193070E04EDFCE01DF91CF910F910895EF92C9
S1131940FF920F931F93CF93DF938A01FC01568D6F
S1131950378D531710F02230E1F4422F7801EC0157
S11319601AA10DDE1F3F79F48B898823A1F0CE01E3
S1131970439670D5882389F0E114F10481F081E065
S1131980F70180830DC0FF24F394F10EFAA281E0E5
S113199007C080E005C081E003C081E001C081E0B0
S11319A0DF91CF911F910F91FF90EF9008958F9247
S11319B09F92AF92BF92CF92DF92EF92FF920F93DA
S11319C01F93CF93DF93CDB7DEB729970FB6F89463
S11319D0DEBF0FBECDBF7C015B012E833F834887F2
S11319E05987912C882483946C0183E1C80ED11CFF
S11319F00FB6F8940F92F701168D112361F1C6808A
S1131A00D780B501C7011ADE011116C01150F701C4
S1131A10168F80819181892B21F477D6F7019383E6
S1131A208283F7018085882391F0C701089612D537
S1131A30882369F0E0DC0BC0F701D782C682838972
S1131A40882329F0C701439605D58111D4DC0F9072
S1131A500FBE81E05EC08E819F81A885B985892BE8
S1131A608A2B8B2B21F40F900FBE80E052C0911073
S1131A7004C0CE01019630D5982C0F900FBEC6D26B
S1131A800FB6F8940F92F70181A18F3F09F411A2C8
S1131A90F70182A18F3F09F412A20F900FBEBE017D
S1131AA06A5F7F4FCE01019628D5811126C00FB6FB
S1131AB0F8940F92F701868D0F900FBE811119C013
S1131AC080819181892B41F40FB6F8940F92828121
S1131AD093817DD50F900FBE4E815F816885798596
S1131AE0C601A1D4C701C4DD7AD3811181CF83DCBF
S1131AF07FCFC701BDDD73D37BCFC701B9DD6FD302
S1131B000FB6F8940F92F701868D0F900FBE8111D6
S1131B106FCF29960FB6F894DEBF0FBECDBFDF910D
S1131B20CF911F910F91FF90EF90DF90CF90BF90D6
S1131B30AF909F908F900895EF92FF920F931F9311
S1131B40CF93DF93FC01C68DCC23E9F07A018C019D
S1131B50D1A174DDC150F801C68FDF3F79F48085CF
S1131B60882399F0C801089675D4882381F0E1147C
S1131B70F10479F081E0F70180830CC0DF5FF801A4
S1131B80D1A381E007C080E005C081E003C081E00B
S1131B9001C081E0DF91CF911F910F91FF90EF90F1
S1131BA008950FB6F8940F92FC01868D0F900FBE26
S1131BB00895FC01868D0895E091981DF091991D7A
S1131BC0808181110CC08FEF9FEFDC018093651D34
S1131BD09093661DA093671DB093681D0895E091CE
S1131BE0981DF091991D0780F085E02D0084F18502
S1131BF0E02D82819381A481B5818093651D9093AA
S1131C00661DA093671DB093681D08958F929F92DF
S1131C10AF92BF92CF92DF92EF92FF92CF936B017C
S1131C207C01C42F80906F1D9090701DA090711D39
S1131C30B090721D8091E71D9091E81D0296C3D962
S1131C408FEFC816D806E806F80661F4CC2351F0E5
S1131C506091E71D7091E81D6E5F7F4F84E79DE101
S1131C6054D93DC0C80CD91CEA1CFB1CE091E71DEB
S1131C70F091E81DC282D382E482F582C814D904AB
S1131C80EA04FB0460F46091E71D7091E81D809103
S1131C90961D9091971D6E5F7F4F58D920C060911B
S1131CA0E71D7091E81D8091981D9091991D6E5FBC
S1131CB07F4F4CD98091651D9091661DA091671D41
S1131CC0B091681DC816D906EA06FB0640F4C09216
S1131CD0651DD092661DE092671DF092681DCF913C
S1131CE0FF90EF90DF90CF90BF90AF909F908F9038
S1131CF008954F925F926F927F928F929F92AF92CC
S1131D00BF92CF92DF92EF92FF920F931F93CF93E4
S1131D10DF934C016B015A012901CA01C7D93C0167
S1131D20892B09F4E1C08AE390E0C0D9EC01892B46
S1131D30B1F07C8E6B8EA50165EA70E0C3010E9450
S1131D40392C21E0A21AB1088B8D9C8DA80EB91EE6
S1131D50D6018C918D8F8C91811104C017C0C30161
S1131D6069DAC2C0AE01425E5F4FF6013196B4E15A
S1131D70CB0ED11CCF012191DA012D93AD01DC01F1
S1131D808C91882319F0CE16DF06A1F718AA053026
S1131D9008F004E00A8F0BAB1CAA6E01B2E0CB0E74
S1131DA0D11CC601AED8CE010E96ABD8DB87CA874C
S1131DB085E090E0A0E0B0E0801B9109A109B109A1
S1131DC08E879F87A88BB98BDF8BCE8B1DAA1EAA0B
S1131DD01FAA18AE19AEA201B401C5015ADA99833B
S1131DE08883E114F10419F0F701D183C0830FB69D
S1131DF0F8940F928091731D8F5F8093731D80916F
S1131E00E71D9091E81D892BA9F5D093E81DC09397
S1131E10E71D8091731D813009F03CC00F2EF0EB5B
S1131E20EF2EFDE1FF2EF02D07EE1DE1C70158D87E
S1131E30FBE0EF0EF11CE016F106C1F785EA9DE127
S1131E404FD88AE99DE14CD88BE89DE149D880E8D8
S1131E509DE146D884E79DE143D885EA9DE19093CE
S1131E60991D8093981D8AE99DE19093971D809315
S1131E70961D10C080916D1D81110CC0E091E71D6D
S1131E80F091E81D928D8A8D891720F0D093E81D7A
S1131E90C093E71D8091691D8F5F8093691D89AB95
S1131EA08A8D90916E1D981710F480936E1D2BE00F
S1131EB0829FC0011124B6018055924E26D80F90FE
S1131EC00FBE80916D1D882359F0E091E71DF091BC
S1131ED0E81D928D8A8D981728F48DDA81E005C06B
S1131EE081E003C081E001C08FEFDF91CF911F91AA
S1131EF00F91FF90EF90DF90CF90BF90AF909F90A5
S1131F008F907F906F905F904F900895EF92FF9223
S1131F101F93CF93DF93FC012485358524573D41DE
S1131F20C1F5FC01208D318DFDE12B383F0799F17E
S1131F30232B99F5EC018091621D811121C0E09160
S1131F40E71DF091E81D11E09A8D828D981708F431
S1131F5010E07E0122E0E20EF11CC70134D88A8D24
S1131F6090916E1D981710F480936E1D4BE0849F22
S1131F70C0011124B7018055924E0E9485070EC0FE
S1131F80BE01625F7F4F8BE89DE10E94850710E0F0
S1131F9005C010E003C010E001C010E0812FDF9104
S1131FA0CF911F91FF90EF900895EF92FF920F93BE
S1131FB00F2EF3E6EF2EFDE1FF2EF02D00E020E0E2
S1131FC030E040E054E06FE772E082E891E191DEB6
S1131FD08130C1F4F8948FEF9FEFDC018093651D8D
S1131FE09093661DA093671DB093681D81E0809354
S1131FF06D1D10926F1D1092701D1092711D109224
S1132000721DB9D90F91FF90EF9008958091621DD0
S11320108F5F8093621D08950FB6F8940F926091BC
S11320206F1D7091701D8091711D9091721D0F90A4
S11320300FBE08959F92AF92BF92CF92DF92EF921C
S1132040FF920F931F93CF93DF938091621D8111B1
S1132050ADC0C0906F1DD090701DE090711DF090C8
S1132060721D8FEFC81AD80AE80AF80AC0926F1DC9
S1132070D092701DE092711DF092721DC114D104B2
S1132080E104F104B1F48091981D9091991D20917F
S1132090961D3091971D3093991D2093981D909310
S11320A0971D8093961D80916A1D8F5F80936A1D92
S11320B083DD8091651D9091661DA091671DB0918F
S11320C0681DC816D906EA06FB0610F4B12C5DC0DB
S11320D0B12C0F2EFBE0AF2EF02D99249394E091B8
S11320E0981DF091991D808181110CC08FEF9FEF95
S11320F0DC018093651D9093661DA093671DB093CA
S1132100681D43C0E091981DF091991D0780F085EA
S1132110E02DC085D1858A819B81AC81BD81C816A3
S1132120D906EA06FB0648F48093651D9093661D64
S1132130A093671DB093681D28C08E010E5F1F4FCA
S1132140C8010E94E307888D998D892B21F0CE0167
S11321500E960E94E3078A8D90916E1D981710F4D5
S113216080936E1DA89EC0011124B8018055924E23
S11321700E948507E091E71DF091E81D9A8D828DFC
S1132180981708F4ACCFB92CAACFE091E71DF091D1
S1132190E81DE28D8BE0E89FF0011124E055F24E3A
S11321A08081823048F0BB24B39406C080916C1DBA
S11321B08F5F80936C1DB12C80916B1D882311F06F
S11321C0BB24B3948B2DDF91CF911F910F91FF907E
S11321D0EF90DF90CF90BF90AF909F900895CF92F3
S11321E0DF92EF92FF920F931F93CF93DF930FB67B
S11321F0F8940F928091621D81508093621D8091AA
S1132200621D811159C08091731D81112CC057C06A
S1132210D7011796ED91FC911897C085D185CE0111
S11322200E960E94E3078E010E5F1F4FC8010E94A5
S1132230E3078A8D90916E1D981710F480936E1D9C
S1132240D89EC0011124B8018055924E0E94850782
S1132250E091E71DF091E81D9A8D828D981788F022
S1132260C0926B1D0EC0C0E0D0E00F2EFBE8EF2E35
S1132270FDE1FF2EF02D0F2EFBE0DF2EF02DCC2400
S1132280C394F70180818111C3CFCD2B09F094DC75
S1132290C0916C1DCC2349F0D1E0CCDE8111D093E8
S11322A06B1DC150D1F710926C1D80916B1D88235A
S11322B029F0A1D881E003C080E001C080E00F9044
S11322C00FBEDF91CF911F910F91FF90EF90DF90A0
S11322D0CF900895CF92DF92EF92FF926B017C0131
S11322E0672B682B692B41F091DE40E0C701B601F2
S11322F08DDC75DF811101C07ED8FF90EF90DF90F7
S1132300CF90089500E81DE10F2EF0EBEF2EFDE1D4
S1132310FF2EF02D27C07ADED801CC9160DFCC23CC
S113232009F10FB6F8940F92D8011796ED91FC912C
S11323301897C085D185CE0102960E94E30780914B
S1132340731D81508093731D80917F1D81508093F4
S11323507F1D0F900FBE8B8D9C8D0E941A09CE019C
S11323600E941A0980917F1D8111D5CFF7018081C8
S11323708230C0F340D8F6CF8091621D882321F0CB
S113238081E080936B1D089510926B1D80916E1DEA
S1132390282F30E09BE0899FF0011124E055F24E94
S11323A0908191110EC04BE08150282F30E0429F64
S11323B0F001439FF00D1124E055F24E90819923D2
S11323C099F39BE0929FA001939F500D1124DA0191
S11323D0A055B24E1196ED91FC9112970480F581AF
S11323E0E02D1296FC93EE9311974D54524EE41740
S11323F0F50729F444815581FD01528341839BE013
S1132400929FF001939FF00D1124E055F24E01804C
S1132410F281E02D208531853093E81D2093E71D5E
S113242080936E1D0895CF92DF92EF92FF926A011E
S11324307B016091E71D7091E81D625F7F4F0E94F0
S1132440A60741E0C701B601E1DBFF90EF90DF9002
S1132450CF9008950F931F93CF93DF93DC011796CA
S1132460ED91FC911897C085D1858E01025F1F4FB5
S1132470C8010E94E3078091621D811116C00C50AF
S11324801109C8010E94E3078A8D90916E1D981767
S113249010F480936E1DBBE08B9FC0011124B80122
S11324A08055924E0E94850705C0B8018BE89DE1D6
S11324B00E948507E091E71DF091E81D9A8D828DB9
S11324C0891720F481E080936B1D01C080E0DF91C7
S11324D0CF911F910F91089520916A1DFC012083D3
S11324E040916F1D5091701D6091711D7091721D0E
S11324F0418352836383748308958F929F92AF9232
S1132500BF92CF92DF92EF92FF920F931F93CF93DC
S1132510DF93FB010FB6F8940F9200916F1D109199
S1132520701D2091711D3091721D40815181628115
S113253073814F3FAFEF5A076A077A0781F1A09181
S11325406A1DEC01B881BA1749F0C980DA80EB80C2
S1132550FC800C151D052E053F0518F5DC011196B0
S1132560CD90DD90ED90FC901497480159018C18A2
S11325709D08AE08BF0884169506A606B70698F40B
S1132580C01AD10AE20AF30A4C0D5D1D6E1D7F1DAF
S113259040835183628373839FDF80E005C080E0C2
S11325A003C081E001C081E00F900FBEDF91CF91A5
S11325B01F910F91FF90EF90DF90CF90BF90AF905D
S11325C09F908F90089581E080936B1D08950F93E1
S11325D01F93CF93DF93FC01892B09F451C0828DA3
S11325E0A091E71DB091E81D5A969C91891708F0B7
S11325F047C04685578560897189772394F0A091F7
S1132600E71DB091E81D5A969C9145E050E060E0CA
S113261070E0491B51096109710946875787608B2E
S1132620718B2BE0829FC00111248055924E24852A
S1132630358528173907E9F48F01EF012296CE0179
S11326400E94E307E091E71DF091E81D828DF801F7
S1132650828F90916E1D981710F480936E1DFBE08D
S11326608F9FC0011124BE018055924E0E948507A0
S113267007C0A091E71DB091E81D5A968C91828FF6
S1132680DF91CF911F910F9108950F931F93CF93D3
S1132690DF93FC01892B79F184A9815084AB228DCD
S11326A093A9291751F181112AC0EF018F010E5FFF
S11326B01F4FC8010E94E3078BA98A8F45E050E0B1
S11326C060E070E0481B5109610971094E875F871A
S11326D0688B798B90916E1D981710F480936E1D02
S11326E02BE0829FC0011124B8018055924E0E94B4
S11326F0850781E005C080E003C080E001C080E080
S1132700DF91CF911F910F9108958091E71D9091D2
S1132710E81D892B39F0E091E71DF091E81D84A9AB
S11327208F5F84AB8091E71D9091E81D08950C9410
S1132730560808950C941A09089540E01BC808959A
S11327400F9300E045D8082E000C990B0F910895C3
S113275020E0F5D8082E000C990B08950F9300E0A3
S113276026D9082E000C990B0F910895E5D9082E4F
S1132770000C990B089515DA90E00895CF93DF9338
S1132780EC0181E0C1D89983888321E030E0892B72
S113279011F420E030E0C901DF91CF9108950F9347
S11327A0CF93DF93EC0143E060E081E00E94BA0B39
S11327B099838883009739F000E020E030E0A90194
S11327C060E070E005D881E090E0DF91CF910F9157
S11327D00895CF92DF92EF92FF920F93CF93DF93FE
S11327E0EC016A017B0180910A028823E1F00E94D6
S11327F0621CDF93CF931F9295E49F9324EA32E007
S11328003F932F931F928F938AE992E09F938F9324
S113281086E08F936FD78DB79EB70B960FB6F8945B
S11328209EBF0FBE8DBF00E0A701960160E070E07F
S113283088819981BCD821E030E0813011F020E01A
S113284030E0C901DF91CF910F91FF90EF90DF90BD
S1132850CF9008950F93CF93DF93EC0180910A02F8
S11328608823E1F00E94621CDF93CF931F9290E5CE
S11328709F9324EA32E03F932F931F928F9384E82F
S113288092E09F938F9386E08F9334D78DB79EB752
S11328900B960FB6F8949EBF0FBE8DBF00E020E0EC
S11328A030E0A90160E070E0888199810E94E80B22
S11328B021E030E0813011F020E030E0C901DF9107
S11328C0CF910F910895982FE82FEF704E2F50E07D
S11328D0FA013197E830F105D8F48827EE58FF4F14
S11328E08F4F0C94B02B2FE130E017C020E230E082
S11328F014C021E230E011C022E230E00EC023E235
S113290030E00BC024E230E008C025E230E005C02E
S113291020E030E002C02EE130E0892F807F803259
S113292049F018F4803191F00EC0803331F08034D6
S113293039F009C082E090E00BC083E090E008C069
S113294084E090E005C080E090E002C081E090E087
S11329503F932F939F938F9380EB92E09F938F935A
S11329600E948D2C0F900F900F900F900F900F904E
S11329700895EF92FF920F93BCD921E030E08130AB
S113298011F420E030E088279927821B930B0F91E4
S1132990FF90EF90089540CB0895CF92DF92EF928D
S11329A0FF920F931F93CF93DF931F921F92CDB784
S11329B0DEB79093EC1D8093EB1D9B01225F3F4F8C
S11329C03093EA1D2093E91D6D5E7F4F6B01E894FF
S11329D0C0F88C9D80018D9D100D9C9D100D1124BF
S11329E0C801A5DE9093EE1D8093ED1D892B09F49B
S11329F04FC062E070E08091EB1D9091EC1D9DDE74
S1132A009093F01D8093EF1D892BD1F1A80160E014
S1132A1070E08091ED1D9091EE1D0E94392C809103
S1132A20EB1D9091EC1D892BB1F1E12CF12C00E010
S1132A3010E0E091ED1DF091EE1DEE0DFF1DFA8307
S1132A40E98311821082E981FA81F383E28320E031
S1132A5030E0A901BE016F5F7F4F8091EF1D90911F
S1132A60F01D6EDE0F5F1F4FEC0CFD1C8091EB1D03
S1132A709091EC1D08171907E0F280E090E00DC07A
S1132A808091ED1D9091EE1D55DE8FEF9FEF05C0F7
S1132A908FEF9FEF02C080E090E00F900F90DF91E6
S1132AA0CF911F910F91FF90EF90DF90CF900895F9
S1132AB0CF93DF9300D0CDB7DEB71A8219821B8281
S1132AC00E962091E91D3091EA1D28173907E8F088
S1132AD0AE014D5F5F4FBE016F5F7F4F8091EF1D71
S1132AE09091F01D43DEE981FA81309789F082816B
S1132AF09381E817F90779F4808191810196918394
S1132B00808389819A81049608C080E090E005C0A2
S1132B1080E090E002C080E090E00F900F900F9072
S1132B20DF91CF910895EF92FF920F931F93CF936C
S1132B30DF931F921F92CDB7DEB78C011A821982E0
S1132B409C01225F3F4F8091E91D9091EA1D8217FD
S1132B509307F8F480910402882309F494C0B2D650
S1132B601F930F931F929CE79F9326EC32E03F93B1
S1132B702F931F928F938BE094E09F938F931F92D8
S1132B80B9D50FB6F894DEBF0FBECDBF80E090E09C
S1132B9082C020E030E0A901BE016F5F7F4F8091C9
S1132BA0EF1D9091F01DDADD09811A8101151105DF
S1132BB0E9F480910402882309F468C083D61F9243
S1132BC092E89F9326EC32E03F932F931F928F93CA
S1132BD08FEE93E09F938F931F928CD50FB6F8944A
S1132BE0DEBF0FBECDBF80E090E055C080910702EC
S1132BF08823E9F0F801F280E38064D6EF92FF9233
S1132C001F930F931F9296E89F9326EC32E03F9315
S1132C102F931F928F9387ED93E09F938F9383E07D
S1132C208F9368D50FB6F894DEBF0FBECDBFE98190
S1132C30FA8182819381E817F907E1F08091040217
S1132C40882339F13FD61F9299E89F9326EC32E00E
S1132C503F932F931F928F9387EB93E09F938F93D0
S1132C601F9248D50FB6F894DEBF0FBECDBF80E0EB
S1132C7090E011C080819181019691838083898144
S1132C809A81049608C080E090E005C080E090E05E
S1132C9002C080E090E00F900F90DF91CF911F91E0
S1132CA00F91FF90EF900895CF93DF9300D0CDB7AD
S1132CB0DEB71982009751F19C01245031093B83FE
S1132CC02A8320FD23C0F90142815381241735074B
S1132CD0E9F4F9012081318121153105B9F022305F
S1132CE0310528F021503109318320830FC0FC01C4
S1132CF0349711821082AE014F5F5F4FBE016E5F49
S1132D007F4F8091EF1D9091F01D22DD0F900F9069
S1132D100F90DF91CF910895CF92DF92EF92FF92BF
S1132D200F931F93CF93DF931F921F92CDB7DEB7FC
S1132D308C010097D9F480910402882309F4D7C048
S1132D40C1D51F929CEA9F9326EC32E03F932F93C8
S1132D501F928F938DE893E09F938F931F92CAD411
S1132D600FB6F894DEBF0FBECDBFC1C07C0194E0A6
S1132D70E91AF108FA82E982E0FE1DC0809104029A
S1132D80882309F4B4C09ED51F930F931F9293EB2D
S1132D909F9326EC32E03F932F931F928F938AE503
S1132DA093E09F938F931F92A5D40FB6F894DEBF40
S1132DB00FBECDBF9CC0F801349782819381E81681
S1132DC0F906E9F080910402882309F490C07AD5C9
S1132DD01F930F931F9298EB9F9326EC32E03F933F
S1132DE02F931F928F9389E293E09F938F931F9267
S1132DF081D40FB6F894DEBF0FBECDBF78C0F80102
S1132E003497808191810097E9F4809104028823AA
S1132E1009F46DC057D5FF92EF921F929DEB9F93DB
S1132E2026EC32E03F932F931F928F938FEF92E023
S1132E309F938F931F925ED40FB6F894DEBF0FBE9C
S1132E40CDBF55C08230910538F16C0121E0C21A22
S1132E50D108F8013497D182C0828091040288237A
S1132E6009F445C02FD5DF92CF92FF92EF921F92C3
S1132E7091EC9F9326EC32E03F932F931F928F9314
S1132E808FEC92E09F938F931F9234D40FB6F894F3
S1132E90DEBF0FBECDBF2BC0F80134971182108264
S1132EA0809107028823C1F00DD5FF92EF921F9203
S1132EB095EC9F9326EC32E03F932F931F928F93D0
S1132EC089EB92E09F938F9383E08F9313D40FB693
S1132ED0F894DEBF0FBECDBF20E030E0A901BE01F3
S1132EE06F5F7F4F8091EF1D9091F01D29DC0F9053
S1132EF00F90DF91CF911F910F91FF90EF90DF9092
S1132F00CF900895DF92EF92FF920F931F93CF9388
S1132F10DF931F921F92CDB7DEB77A836983009740
S1132F20B1F18C0120E030E0A901BE016F5F7F4F59
S1132F30FC018485958504DC019761F1809104028C
S1132F40882359F1F8018485958515DCE82ED92E5E
S1132F50F801F4841585B6D4DF92EF921F93FF92A3
S1132F601F9295E69F9325EE32E03F932F931F9295
S1132F708F9388E197E09F938F931F92BBD30FB6F3
S1132F80F894DEBF0FBECDBF8FEF9FEF08C08EEF6A
S1132F909FEF05C080E090E002C08FEF9FEF0F909D
S1132FA00F90DF91CF911F910F91FF90EF90DF90E1
S1132FB008950F931F93CF93DF93EDDCCB010E9411
S1132FC0252C0E94222C8F719078992324F4019748
S1132FD0806E9F6F0196805E8093F41D82EF9DE169
S1132FE0DEDB019729F4C9EFDDE109EE1EE144C0FF
S1132FF080910402882309F472C064D41F929BE771
S11330009F9325EE32E03F932F931F928F9388EE88
S113301096E09F938F931F926DD38DB79EB70996B9
S11330200FB6F8949EBF0FBE8DBF8FEF9FEF62C0A7
S113303080910402882309F455C044D41F929AE86D
S11330409F9325EE32E03F932F931F928F938AEB49
S113305096E09F938F931F924DD38DB79EB7099699
S11330600FB6F8949EBF0FBE8DBF8FEF9FEF42C087
S113307068960C171D0779F062E070E084E690E032
S11330805CDB9B878A87FE0131971082CE0176DB59
S1133090019771F3CDCF85EF9DE181DB019729F194
S11330A080910402882321F10DD41F9297E99F9304
S11330B025EE32E03F932F931F928F938BE896E097
S11330C09F938F931F9216D38DB79EB709960FB611
S11330D0F8949EBF0FBE8DBF8FEF9FEF0BC08FEF95
S11330E09FEF08C08FEF9FEF05C080E090E002C023
S11330F08FEF9FEFDF91CF911F910F9108958F92E2
S11331009F92AF92BF92CF92DF92EF92FF926B01A8
S11331107C0149015A01E7EFFDE180E090E0318153
S1133120332309F1208121111EC044815581668118
S113313077814C255D256E257F25482159216A21FB
S11331407B21452B462B472B71F49C01220F331F07
S1133150820F931F880F991F880F991F880F991F3B
S11331608950924E07C0019678968A309105B9F637
S113317080E090E0FF90EF90DF90CF90BF90AF9011
S11331809F908F9008950F931F93CF93DF931F9277
S11331901F92CDB7DEB78C0105C089819A81009753
S11331A009F0BADD20E030E0A901BE016F5F7F4F76
S11331B0F80184859585D2DA019779F380E090E06F
S11331C00F900F90DF91CF911F910F9108951F934E
S11331D0CF93DF93182F44E650E060E070E085EF72
S11331E09DE1F7DA019701F180910402882309F443
S11331F07EC068D31F929DEC9F9325EE32E03F93EF
S11332002F931F928F9384E696E09F938F931F9240
S113321071D28DB79EB709960FB6F8949EBF0FBEB4
S11332208DBF80E090E070C08091F11D90E0019628
S11332306AE070E00E947B2BFC01EE0FFF1FE80F99
S1133240F91FEE0FFF1FEE0FFF1FEE0FFF1FE950D8
S1133250F24E418141114EC0EF0117C0EC01CC0F79
S1133260DD1FC80FD91FCC0FDD1FCC0FDD1FCC0F06
S1133270DD1FC950D24E4981442339F00196BF0164
S11332800E947B2B2150310949F72981213011F506
S1133290809104028823C1F015D31F929DED9F9362
S11332A025EE32E03F932F931F928F938EE396E0A7
S11332B09F938F931F921ED28DB79EB709960FB618
S11332C0F8949EBF0FBE8DBF85EF9DE1C3DA80E009
S11332D090E01AC091E099831F861E86188380931C
S11332E0F11D85EF9DE1B6DA8C2F9D2F0DC080E096
S11332F090E00AC001966AE070E00E947B2B29E00E
S113330030E0EAE0F0E0AACFDF91CF911F91089579
S11333108F929F92AF92BF92CF92DF92EF92FF92E1
S1133320CF93DF934B015C0169017A0180E04FDFA9
S1133330EC01892B79F08C829D82AE82BF82C88693
S1133340D986EA86FB8627DB688B798B8A8B9B8BF5
S1133350CE0119DFCE01DF91CF91FF90EF90DF9086
S1133360CF90BF90AF909F908F900895CF93DF93AD
S1133370EC01892B09F580910402882309F473C0B8
S1133380A1D291E09F9393E09F9325EE32E03F9387
S11333902F931F928F9381E196E09F938F931F92B7
S11333A0A9D18DB79EB709960FB6F8949EBF0FBEEC
S11333B08DBF8EEF9FEF5FC08981811122C0809104
S11333C00902882309F452C07DD291E09F9398E0CA
S11333D09F9325EE32E03F932F931F928F9380EFBC
S11333E095E09F938F9385E08F9384D18DB79EB79B
S11333F009960FB6F8949EBF0FBE8DBF80E090E093
S11334003AC044E650E060E070E085EF9DE1E1D928
S1133410019701F180910402882359F153D291E07C
S11334209F9395E19F9325EE32E03F932F931F9254
S11334308F9389EC95E09F938F931F925BD18DB707
S11334409EB709960FB6F8949EBF0FBE8DBF8DEF41
S11334509FEF11C01982CE0196DE85EF9DE1FAD966
S113346080E090E008C08EEF9FEF05C080E090E020
S113347002C08DEF9FEFDF91CF9108957F928F92DD
S11334809F92AF92BF92CF92DF92EF92FF920F93EF
S11334901F93CF93DF93162FB42EC82FC295CC0F52
S11334A0CC0FC07C0C2F0ED2A82EAA0CAA0CAA0CEE
S11334B0AA0C82958170082B812F8F71982F990FF8
S11334C0092BDB2DDF739D2E812C1295107F8295A5
S11334D08F70C82BF7D18F71880FC82BBB0CBB0C16
S11334E0BB0CBB0CBB0CBB0C8D2F86958695182B87
S11334F0C0FE21C080910402882309F4DAC0E2D11D
S113350091E09F9393E49F9325EE32E03F932F93B2
S11335101F928F9381E795E09F938F931F92EAD038
S11335208DB79EB709960FB6F8949EBF0FBE8DBF98
S113353080E090E0D1C0C2FE21C0809104028823C3
S113354009F4BAC0BFD191E09F939DE49F9325EE07
S113355032E03F932F931F928F9389E095E09F93DE
S11335608F931F92C7D08DB79EB709960FB6F89464
S11335709EBF0FBE8DBF80E090E0AEC0C4FE21C0F0
S113358080910402882309F49AC09CD191E09F930E
S113359097E59F9325EE32E03F932F931F928F93ED
S11335A085EA94E09F938F931F92A4D08DB79EB722
S11335B009960FB6F8949EBF0FBE8DBF80E090E0D1
S11335C08BC0C6FE21C080910402882309F47AC00E
S11335D079D191E09F9391E69F9325EE32E03F935A
S11335E02F931F928F938FE394E09F938F931F9257
S11335F081D08DB79EB709960FB6F8949EBF0FBEC3
S11336008DBF80E090E068C048EE53E060E070E079
S113361082EF9DE1DED8019709F057C0D091F41DE7
S11336206894772475F825C0803410F07092F41DE6
S11336309091F41D892F8F732B2D207CB22EB82AE4
S11336409295990F990F907C292D2F73922E992A78
S1133650869586959A2D907FA92EA82A20E030EC95
S11336604FE050E0682D792D8A2D902F48DD892B6D
S113367039F08091F41D8F5F8093F41DD813D4CF5B
S113368082EF9DE1E7D88091F41DD81709F120E07D
S11336903B2D412F5C2F60E0792D8A2D902F38DE51
S11336A0FC010097C1F0C48AD58AE68AF78A9F2F65
S11336B013C080E090E010C080E090E00DC080E096
S11336C090E00AC080E090E007C080E090E004C091
S11336D080E090E001C09F2FDF91CF911F910F9167
S11336E0FF90EF90DF90CF90BF90AF909F908F901E
S11336F07F9008950F931F93CF93DF93CDB7DEB7D9
S11337009885973008F046C0E92FF0E0EC5FFD4F54
S11337108081882309F43EC0492F50E04730510589
S1133720C8F5FA018827E658FF4F8F4F0C94B02B49
S113373082E10BC084E109C086E007C083E005C0D4
S113374085E003C087E001C083E1AE01455F5F4FC0
S1133750042F152FE091E71EF091E81E309729F011
S113376069857A85892F199515C0ADD8402F512FB9
S113377069857A8580912A2090912B200E94B42C0F
S113378084E497E09F938F930E948D2C80EF9BD8C5
S11337900F900F90DF91CF911F910F910895CF92C9
S11337A0DF92EF92FF920F931F93C92EDD24EE2434
S11337B0FF24362F2227112700270C291D292E2903
S11337C03F296B017C01CC24EE24FF24FE2CED2C3C
S11337D0DC2CCC240C291D292E293F29DC01CB010A
S11337E088279927BB27892F9A2FAB2FBB27BC018A
S11337F0CD01602B712B822B932B1F910F91FF9086
S1133800EF90DF90CF900895CF92DF92EF92FF92E6
S11338100F931F93C92EDD24EE24FF24362F222775
S1133820112700270C291D292E293F296B017C0112
S1133830CC24EE24FF24FE2CED2CDC2CCC240C29EF
S11338401D292E293F29DC01CB0188279927BB2775
S1133850892F9A2FAB2FBB27BC01CD01602B712B75
S1133860822B932B1F910F91FF90EF90DF90CF90BD
S11338700895A091E91EB091EA1E109741F4909327
S1133880EA1E8093E91EFC0112AA11AA0895A81742
S1133890B907B9F0D196ED91FC91D297309741F4E4
S11338A0FD010AC021A932A92115310529F0F90128
S11338B08E179F07B9F7089592AB81ABFC0112AA4A
S11338C011AA08958091EB1E0895CF93DF938093FE
S11338D0EB1E6FDB0097E9F43CD30097D1F443D39C
S11338E0EC010097A9F48EE392E0C3DF2FEF4EE3DF
S11338F052E065E08091EB1E0E94BB242FEF4EE363
S113390052E065E080E20E94BB248C2F9D2F01C011
S11339109D2FDF91CF910895CF93DF931F921F9234
S1133920CDB7DEB71A821982009791F0FC0121818C
S1133930213089F49A01AB01BE016F5F7F4F84850A
S113394095850E94AE13019749F489819A8108C034
S113395080E090E005C080E090E002C080E090E06C
S11339600F900F90DF91CF9108954F925F926F92D5
S11339707F928F929F92AF92BF92CF92DF92EF92FB
S1133980FF920F931F93CF93DF93A62E872E982E2B
S1133990B92E6A01E901270138014115510509F5DC
S11339A080910402882309F445C11F9285EF8F9307
S11339B082E093E09F938F938091EB1E1F928F93ED
S11339C087E599E09F938F931F9294DE8DB79EB7FE
S11339D009960FB6F8949EBF0FBE8DBF86EF9FEF7A
S11339E02EC1209721F08C819D81892B29F580910E
S11339F00402882309F421C1BF929F928F92AF924F
S1133A001F928AEF8F9382E093E09F938F9380912C
S1133A10EB1E1F928F9382E399E09F938F931F92E3
S1133A2069DEEDB7FEB73D960FB6F894FEBF0FBE44
S1133A30EDBF86EF9FEF03C180910802882309F44C
S1133A404BC089818F9388818F93FA0181858F93ED
S1133A5080858F931F926F931F928B2D82958695ED
S1133A60869583708F931F92872F8F738F93892DE1
S1133A708F70880F880F972F9295969596959370CF
S1133A80892B1F928F938B2D81708295807F992D26
S1133A9092959F70892B1F928F938B2D86958F7192
S1133AA01F928F931F928FEF8F9382E093E09F93E7
S1133AB08F938091EB1E1F928F9386EE98E09F93D5
S1133AC08F9384E08F9316DE8DB79EB749960FB619
S1133AD0F8949EBF0FBE8DBFF601A286838694869E
S1133AE0B5868B2D86958F71482F50E02091EB1E63
S1133AF030E04217530709F063C01A2DA3FE1EC01D
S1133B0090910502992309F487C091E09F9328E1DD
S1133B102F9322E033E03F932F931F928F932AE752
S1133B2038E03F932F939F93E5DD8DB79EB70996B9
S1133B300FB6F8949EBF0FBE8DBF6EC0A0FE1EC010
S1133B40909105029923C1F091E09F9327E22F936E
S1133B5022E033E03F932F931F928F9327E038E0C6
S1133B603F932F939F93C6DDEDB7FEB739960FB6FB
S1133B70F894FEBF0FBEEDBF1E7FA12EA2FE20C093
S1133B8080910502882309F447C081E08F9390E473
S1133B909F9322E033E03F932F939091EB1E1F926B
S1133BA09F9326E937E03F932F938F93A3DD8DB73F
S1133BB09EB709960FB6F8949EBF0FBE8DBF2CC05A
S1133BC0F601A084B1848E819F81009719F08A1533
S1133BD09B0510F1EC81FD81A3019201B601CE0198
S1133BE019950097C9F449855A856B857C854F5F83
S1133BF05F4F6F4F7F4F49875A876B877C874DA1F3
S1133C005EA16FA178A54A0D5B1D611D711D4DA3B9
S1133C105EA36FA378A713C089899A89AB89BC89ED
S1133C200196A11DB11D898B9A8BAB8BBC8B86EF42
S1133C309FEF05C086EF9FEF02C086EF9FEFDF91F5
S1133C40CF911F910F91FF90EF90DF90CF90BF9095
S1133C50AF909F908F907F906F905F904F9008955A
S1133C608F929F92AF92BF92CF92DF92EF92FF9288
S1133C700F931F93CF93DF93EC016B0149015A011A
S1133C80892B29F0672B19F08981813009F1809102
S1133C9004028823B9F181E08F9380E68F9382E058
S1133CA093E09F938F938091EB1E1F928F9380E7F5
S1133CB097E09F938F931F921DDD8DB79EB7099652
S1133CC00FB6F8949EBF0FBE8DBF80E090E01CC07D
S1133CD09A8592959F708B8581708295807F892BC0
S1133CE009D69C01688579858A859B85850174013F
S1133CF0A6013BDE31E020E0892B09F030E0832F80
S1133D00922F02C080E090E0DF91CF911F910F913C
S1133D10FF90EF90DF90CF90BF90AF909F908F90E7
S1133D2008954F925F926F927F928F929F92AF927B
S1133D30BF92CF92DF92EF92FF920F931F93CF9394
S1133D40DF933C014A015B012901802F912F0C155F
S1133D501D0514F48C2D9D2D0E949315EC010097E4
S1133D6009F466C01016110644F44114510429F0F4
S1133D70A801B2010E960E94302C19870887A5016C
S1133D809401BE01C3016CDF8C01892B21F4CE01A7
S1133D900E948C1655C0C114D10409F44CC0B5015D
S1133DA0A401C301B9DDEC01892B09F447C08FEFED
S1133DB0C816D80669F188859985C816D90641F1CF
S1133DC0209104022223F1F0DF92CF929F938F93EC
S1133DD081E08F9386E98F9382E093E09F938F93A2
S1133DE08091EB1E1F928F9387E497E09F938F93AC
S1133DF01F9280DC8DB79EB70D960FB6F8949EBFC8
S1133E000FBE8DBFCE010E948C1600E010E018C0DA
S1133E10BE01625F7F4F48855985C7010E94302CDF
S1133E20E884F984CE010E948C160E2D1F2D08C043
S1133E3000E010E005C001E010E002C000E010E086
S1133E40C801DF91CF911F910F91FF90EF90DF9008
S1133E50CF90BF90AF909F908F907F906F905F9026
S1133E604F9008952F923F924F925F926F927F925C
S1133E708F929F92AF92BF92CF92DF92EF92FF9276
S1133E800F931F93CF93DF9300D01F92CDB7DEB76C
S1133E9028013901FA82E982DC82CB821501C12C26
S1133EA0D12C760100E010E09801E8DA5C0100977B
S1133EB081F0640171010B811C8129813A81B30174
S1133EC0A2012FDF882E992EC50150DA882D992D55
S1133ED002C080E090E00F900F900F900F90DF9160
S1133EE0CF911F910F91FF90EF90DF90CF90BF90F3
S1133EF0AF909F908F907F906F905F904F903F9086
S1133F002F90089580329105F0F4FC01EE0FFF1F0D
S1133F10E80FF91FE451F14E2081213059F4FC01DE
S1133F20EE0FFF1F8E0F9F1FFC01E451F14E8181A4
S1133F309281089580914C1F813041F480914D1FEE
S1133F4090914E1F089580E090E0089580E090E005
S1133F50089583E6ECEEFEE1DF011D928A95E9F710
S1133F6080E090E0089580914F1F9091501F892B1D
S1133F7061F464E070E08AE090E00E949D13909305
S1133F80501F80934F1F892B19F080E090E0089513
S1133F908FEF9FEF08952FEF3FEFA901BC018091B0
S1133FA04F1F9091501F0E94AE13019719F480E0A7
S1133FB090E008958DEF9FEF0895CF92DF92EF92F6
S1133FC0FF920F931F93CF93DF9300D01F92CDB72F
S1133FD0DEB77C018B016A010097E1F48091050250
S1133FE0882309F4A9C06EDC1F929DE59F932EE2FD
S1133FF033E03F932F931F928F9384E09AE09F9333
S11340008F9381E08F9376DB0FB6F894DEBF0FBEFB
S1134010CDBF92C06115710521F5809105028823F9
S1134020B1F050DC1F9290E69F932EE233E03F9371
S11340302F931F928F938DEC99E09F938F9381E040
S11340408F9358DB0FB6F894DEBF0FBECDBFCD28DB
S113405021F4C7010E948C166FC0C7010E94541638
S11340606BC07A8369839C838B834115510569F402
S113407020E030E0A901BE016F5F7F4F80914F1FA8
S11340809091501F0E94A01309C0BE016F5F7F4F23
S113409080914F1F9091501F0E94A813019781F1A6
S11340A0809105028823B1F00DDC1F9293E89F9361
S11340B02EE233E03F932F931F928F938CE899E085
S11340C09F938F9381E08F9315DB0FB6F894DEBF37
S11340D00FBECDBFF801818D928DA38DB48D019655
S11340E0A11DB11D818F928FA38FB48FCD2821F490
S11340F0C7010E948C1620C0C7010E9454161CC020
S1134100F80185859685A785B0890196A11DB11D05
S113411085879687A787B08BF70120853185F801BD
S113412081A592A5A3A5B4A5820F931FA11DB11DBE
S113413081A792A7A3A7B4A70F900F900F900F90F9
S1134140DF91CF911F910F91FF90EF90DF90CF906F
S11341500895CF93DF93F901828580FF23C0E9019D
S1134160809105028823C9F0ADDB1F9294E89F93E8
S11341702CE433E03F932F931F928F9381E69AE0D0
S11341809F938F9381E08F93B5DA8DB79EB709968D
S11341900FB6F8949EBF0FBE8DBF8885998504978E
S11341A09987888780E090E0DF91CF9108956F929E
S11341B07F928F929F92AF92BF92CF92DF92EF92B3
S11341C0FF920F931F93CF93DF9300D000D0CDB70E
S11341D0DEB7CE010196DFDE6C01892B09F00FC238
S11341E0EB81FC81FE83ED8380910802882309F42E
S11341F050C0A981BA818C9011967C90A08491843E
S1134200B2848585E82EE694E694E694E694E694F2
S1134210E6949385292F2F73F22E292F2295269524
S1134220269523709485392F3F70632E660C660C97
S1134230622A92959F70082F01700295007F092BC6
S11342408695182F1F713EDB7F928F929F92AF92BB
S11342501F92BF921F92EF921F92FF921F926F9232
S11342601F920F931F921F931F929DEB9F932CE419
S113427033E03F932F931F928F938BE69CE09F93A1
S11342808F9384E08F9336DA0FB6F894DEBF0FBEB7
S1134290CDBFED81FE810485802F82958F700585C9
S11342A001700295007F082B10E00CDB90E00817EA
S11342B0190709F44FC0ED81FE818485982F9295EA
S11342C09F70858581708295807F892B8F3109F459
S11342D041C010D3FC01009741F029813A81821733
S11342E0930741F42085211105C08D819E810E9490
S11342F08C16C3C14D815E81DA011A966D917D9150
S11343008D919C911D97E12CF12C87019F012DDB50
S1134310009709F478C1809105028823B1F0D2DABC
S11343201F929CED9F932CE433E03F932F931F92B5
S11343308F9388E49CE09F938F9381E08F93DAD9E5
S11343400FB6F894DEBF0FBECDBF8D819E810E9453
S11343508C1693C1ED81FE8109811A81828582FFC9
S113436026C0809104028823A9F0ACDA1F9297E357
S11343709F932CE433E03F932F931F928F938AE80B
S11343809BE09F938F931F92B5D90FB6F894DEBF2D
S11343900FBECDBFF801858D968DA78DB0A1019676
S11343A0A11DB11D858F968FA78FB0A32EC183FF4A
S11343B026C0809104028823A9F084DA1F9290E435
S11343C09F932CE433E03F932F931F928F9385E2C6
S11343D09BE09F938F931F928DD90FB6F894DEBF05
S11343E00FBECDBFF801858D968DA78DB0A1019626
S11343F0A11DB11D858F968FA78FB0A306C181FF24
S113440009C1809104028823A9F05CDA1F9299E41F
S11344109F932CE433E03F932F931F928F9387EC69
S11344209AE09F938F931F9265D90FB6F894DEBFDD
S11344300FBECDBFF80185899689A789B08D0196F5
S1134440A11DB11D858B968BA78BB08FDEC0D801C3
S113445054966D917D918D919C91579770FFFCC0FE
S11344602D813E8149815A8174DE99232CF48D81FA
S11344709E810E948C1601C120E030E0A901BE019A
S11344806B5F7F4FF801868597850E94A013019783
S113449009F4F3C0809104028823A9F013DA1F926F
S11344A094EF9F932CE433E03F932F931F928F93C9
S11344B08FE19CE09F938F931F921CD90FB6F894C1
S11344C0DEBF0FBECDBF8D819E810E948C16D5C0EC
S11344D08D819E810E948C16D0C02D813E814981A0
S11344E05A81D80154966D917D918D919C915797E5
S11344F030DE99232CF48D819E810E948C16BDC0E0
S1134500ED81FE818585807CF82EDCD98F71880F42
S1134510F82AED81FE818585869584FB992790F99B
S1134520F92A5385452F4F73469546958295807F8A
S1134530482B252F229526952695237034853F7088
S1134540330F330F932F922B352F3295330F330FB5
S1134550307C392B228562857385848595855F2D12
S11345600E9488197C01892BF9F480910402882324
S1134570B1F0A8D991E09F939BE19F932CE433E0A1
S11345803F932F931F928F9384EF9BE09F938F937E
S11345901F92B0D80FB6F894DEBF0FBECDBF8D8189
S11345A09E810E948C1669C0D8011E968D919C91A3
S11345B01F97F7019787868754968D919D910D904B
S11345C0BC91A02D848B958BA68BB78B13C02D81AA
S11345D03E8149815A81D70154966D917D918D9187
S11345E09C915797B6DD99232CF48D819E810E946E
S11345F08C1643C06D817E81C70163D23EC0CC243A
S1134600CA94DC2C3AC06C0138C08D819E810E9412
S11346108C1633C08385982F9295969596959370B2
S113462084858F70880F880F892B90E06BDC8C0158
S1134630892B09F00CCFED81FE8162857385848519
S1134640958520E03FEF4FEF5FE30E947F187C01E8
S1134650892B09F0BCCF3CCFED81FE816285738547
S11346608485958520E03FEF4FEF5FE30E947F183C
S11346707C01892B09F0ABCF30CFC60126960FB64B
S1134680F894DEBF0FBECDBFDF91CF911F910F9184
S1134690FF90EF90DF90CF90BF90AF909F908F905E
S11346A07F906F9008956FEF7FEFCB0180DDFBCF9C
S11346B0EF92FF920F931F930F2EF1E5EF2EFFE180
S11346C0FF2EF02D8B0120E030E0AC0168E573E0B3
S11346D083E593E20E94B914892B09F180910402C5
S11346E0882301F1EFD891E09F939BE49F932CE4FE
S11346F033E03F932F931F928F9388E39AE09F9325
S11347008F931F920E947A1B8DB79EB709960FB69E
S1134710F8949EBF0FBE8DBF8FEF9FEF05C080E062
S113472090E002C08FEF9FEF1F910F91FF90EF90E9
S11347300895CF92DF92EF92FF92CF93DF93EB0134
S113474069017A019C8592959F708D85817082950F
S1134750807F892BEFD08F3F59F48C85982F9295C9
S11347609F708D8581708295807F892B8E830AC08E
S11347709C8592959F708D8581708295807F892B11
S1134780D9D08E836A857B858C859D8508D86A8778
S11347907B878C879D8788859985049699878887E8
S11347A01F821982A601BE018091551F9091561F48
S11347B002D3019619F480E090E002C085EF9FEFE8
S11347C0DF91CF91FF90EF90DF90CF9008950F93FA
S11347D01F93CF93DF93009789F18B01EC018885B8
S11347E0998504978D3F910588F0EBE0F2E081A173
S11347F092A1A3A1B4A10196A11DB11D81A392A36D
S1134800A3A3B4A3CE010E94541618C09987888725
S1134810D093541FC093531F6A857B858C859D85D7
S11348200E94041C6A877B878C879D87A8016BE0A4
S113483072E08091531F9091541FBFDBDF91CF91A1
S11348401F910F910895CF92DF92EF92FF920F93F1
S11348501F93E82FCB019A017093561F6093551F45
S11348600F2EF7EECF2EF3E2DF2EF02D0F2EFAE00F
S1134870EF2EF12CF02D0AE010E04E2F60E070E0F6
S113488015D2019639F48BE092E00E94391C80E045
S113489090E002C085EF9FEF1F910F91FF90EF9082
S11348A0DF90CF9008950F931F93CF93DF938B01E5
S11348B0FB01C4858C2F82958F70C585C170C2950C
S11348C0C07FC82BD0E00E94621C90E0C817D907B3
S11348D021F0C8010E948C1606C040E050E06EE34F
S11348E072E0C8016ADB80E090E0DF91CF911F9114
S11348F00F91089590E0FC01EE0FFF1FE80FF91FE0
S1134900E95AF04E20813181232B49F0FC01EE0F4E
S1134910FF1F8E0F9F1FFC01E95AF04E08C08091C3
S1134920B71F9091B81F009721F0E7EBFFE180815A
S11349309181089590E0FC01EE0FFF1FE80FF91F2D
S1134940E95AF04E20813181232B49F0FC01EE0F0E
S1134950FF1F8E0F9F1FFC01E95AF04E08C0809183
S1134960B71F9091B81F892B21F0E7EBFFE18281FB
S113497008958FEF08950F931F93CF93DF934115FD
S11349805105D1F1D22F8A01C82FCA010E94391CC6
S1134990C13278F48C2F90E0FC01EE0FFF1FE80F7A
S11349A0F91FE95AF04E11830083D28380E090E02E
S11349B028C080910402882311F10E94621C1F9276
S11349C0CF931F9295E69F932EE733E03F932F9367
S11349D01F928F9383EF9CE09F938F931F920E946B
S11349E07A1B8DB79EB70B960FB6F8949EBF0FBE79
S11349F08DBF8EEF9FEF05C08EEF9FEF02C08EEF4D
S1134A009FEFDF91CF911F910F910895EF92FF9245
S1134A100F931F93CF93DF9388ED9CE09F938F9325
S1134A207CD707E51FE10F900F90C0E0D0E00F2E78
S1134A30F8ECEF2EFCE0FF2EF02DD801ED91FC9167
S1134A4011973097D1F012968C918F3F11F090E02E
S1134A5001C0CE019F938F9381818F9380818F9327
S1134A60DF93CF93FF92EF9258D7ADB7BEB71896A6
S1134A700FB6F894BEBF0FBEADBF21960D5F1F4F9A
S1134A80C032D105D1F68091B91F1F928F93E09166
S1134A90B71FF091B81F81818F9380818F9387EB2B
S1134AA09CE09F938F9339D70F900F900F900F90A6
S1134AB00F900F90DF91CF911F910F91FF90EF9086
S1134AC008950F931F93CF93DF931F921F92CDB737
S1134AD0DEB79A8389838B010E9482179923FCF4A1
S1134AE0809104028823B9F00E94621C1F929EE107
S1134AF09F932EEA33E03F932F931F928F938AE57F
S1134B009DE09F938F931F920E947A1B0FB6F89497
S1134B10DEBF0FBECDBFC8010E948C1635C0E9812F
S1134B20FA8186859785009779F120E030E0A90124
S1134B30BE016F5F7F4F0E94A013019709F180911E
S1134B4005028823C1F00E94621C1F9296E29F9383
S1134B502EEA33E03F932F931F928F9388E29DE0D8
S1134B609F938F9381E08F930E947A1B0FB6F894E2
S1134B70DEBF0FBECDBF89819A810E94B61904C0E1
S1134B80E981FA81178616860F900F90DF91CF91F5
S1134B901F910F91089504C0615071098109910911
S1134BA06115710581059105B9F70895C0E8C3B988
S1134BB066E176E185E090E0EEDFF9CFCF93DF9315
S1134BC0CDB7DEB7C956D1090FB6F894DEBF0FBE14
S1134BD0CDBF1A821982FE01339682E6DF011D924F
S1134BE08A95E9F785E0E8EBF3E0DE01AB59BF4FC6
S1134BF001900D928A95E1F73E01B5E66B0E711CAA
S1134C00CE0101962C010F2EF2EC2F2EFDE03F2E4B
S1134C10F02DF30101900020E9F731976F01C618D8
S1134C20D70888248A94982C5201730108EE13E063
S1134C3020E030E041E062E085E014D96C010196A7
S1134C40029790F03F922F9268D6DF92CF925F92B4
S1134C504F92A8EABDE0BF93AF935FD60FB6F89426
S1134C60DEBF0FBECDBF12C0CD20C09441F4A6E973
S1134C70BDE0BF93AF9351D60F900F9007C085E866
S1134C809DE09F938F9349D60F900F9060E177E258
S1134C9080E090E00E946A11BCCFECEBF0E08081F0
S1134CA08F7E80838081806A808308958F929F9213
S1134CB0AF92BF92CF92DF92EF920F931F93CF9355
S1134CC06230710508F064C0802F5901C42F4B0174
S1134CD0672B59F440E062E00E94BA0B9093CD1F19
S1134CE08093CC1F892B09F456C0C114D10429F038
S1134CF0D092C91FC092C81F0CC040E062E08E2D44
S1134D000E94BA0B9093CB1F8093CA1F892B09F47E
S1134D1045C09092C31F8092C21FB092C11FA0923F
S1134D20C01FC093BF1F0CEB10E0F8011082C091AC
S1134D30B9002091C01F3091C11FA0EDB7E018D574
S1134D409B01AC0160E074E284EF90E0E7D4CA0117
S1134D50B9016850710981099109C370CC0F21E030
S1134D6030E002C0220F331FCA95E2F7032E000C75
S1134D70440B550BD3D42093B8008091BF1F880FE8
S1134D808093BA0085E4F80180838FEF9FEF08C019
S1134D9089EF9FEF05C08EEE9FEF02C08EEE9FEF6E
S1134DA0CF911F910F91EF90DF90CF90BF90AF9074
S1134DB09F908F9008950F93CF93DF931F921F922C
S1134DC0CDB7DEB7FB017A8369838085918501972E
S1134DD08F3F910511F008F040C08091C21F90915F
S1134DE0C31F019751F480E09EE09F938F9395D564
S1134DF00F900F9089EF9FEF32C000E020E030E089
S1134E00A901BE016F5F7F4F8091CC1F9091CD1F90
S1134E100E94E80B813051F08EEE9DE09F938F93BA
S1134E207CD50F900F908FEE9FEF19C00FB6F894BA
S1134E300F928091BD1F9091BE1F892B49F40E944F
S1134E400C102BDF81E090E09093BE1F8093BD1F78
S1134E500F900FBE8FEF9FEF02C08AEF9FEF0F906E
S1134E600F90DF91CF910F9108951F920F920FB67B
S1134E700F9211240BB60F920F931F932F933F930E
S1134E804F935F936F937F938F939F93AF93BF934E
S1134E90CF93EF93FF938091B9001092BC1F1092AF
S1134EA0BB1FE82FE87F8E2F90E0FC013897E13C90
S1134EB0F10508F00FC28827EF57FF4F8F4F50C4FA
S1134EC08091CE1F9091CF1F892BB1F44CEB5FE101
S1134ED06EEC7FE18091CC1F9091CD1F0E949C0DC0
S1134EE0811106C0ECEBF0E08081806180834AC2CE
S1134EF01092C71F1092C61FE091CE1FF091CF1FD2
S1134F008091C61F9091C71F208531858217930712
S1134F1088F48091C61F9091C71F9C012F5F3F4F5B
S1134F203093C71F2093C61FE80FF91F8285809313
S1134F30BB0007C087ED9DE09F938F93EED40F9045
S1134F400F9080E48093BA1F1DC28091CE1F909170
S1134F50CF1F0E9454161092CF1F1092CE1F80E4D0
S1134F608093BA1F0FC281E090E09093BE1F80939C
S1134F70BD1F80E48093BA1F05C281E090E0909346
S1134F80BE1F8093BD1FE091D01FF091D11F3097B9
S1134F90A9F480E091E00E945815FC019093D11F80
S1134FA08093D01F892B09F4EDC1178211861086D6
S1134FB08091BF1F868380E090E006C08085918544
S1134FC08F3F910509F050F49C012F5F3F4F3187CB
S1134FD020872091BB00E80FF91F228780E480938B
S1134FE0BA1FD0C11092BE1F1092BD1F8091D01F56
S1134FF09091D11F009721F480E48093BA1FC2C11D
S1135000E091C81FF091C91F309721F06CEB7FE14C
S1135010199513C020E04CEB5FE160ED7FE18091D6
S1135020CA1F9091CB1F0E949F0C813031F0809158
S1135030D01F9091D11F0E9454168091C21F90914D
S1135040C31F019729F58091CE1F9091CF1F009720
S113505031F00E9454161092CF1F1092CE1FE0918F
S1135060D01FF091D11F80859185892B41F4CF0108
S11350700E9454161092D11F1092D01F04C0F093B6
S1135080CF1FE093CE1F1092C71F1092C61F19C0E6
S11350908091CC1F9091CD1F0E94D90D811106C023
S11350A08091CE1F9091CF1F892B59F08091BB1F07
S11350B080628093BB1F81E090E09093BE1F809339
S11350C0BD1F8091D21F9091D31F892B71F48091C1
S11350D02620909127200E94860F8093BC1F81E098
S11350E090E09093D31F8093D21F1092D11F1092FF
S11350F0D01F80E48093BA1F45C181E090E0909373
S1135100BE1F8093BD1F8091CE1F9091CF1F892B0E
S1135110B1F44CEB5FE16EEC7FE18091CC1F909198
S1135120CD1F0E949C0D811106C0ECEBF0E0808144
S11351308061808327C11092C71F1092C61FE0911F
S1135140CE1FF091CF1F8681880F8093BB0080E42F
S11351508093BA1F17C181E090E09093BE1F8093A3
S1135160BD1F8091CE1F9091CF1F009761F12091B8
S1135170C61F3091C71FFC01408551852417350790
S1135180E0F42091C61F3091C71FE20FF31F828500
S11351908093BB008091C61F9091C71F0196909386
S11351A0C71F8093C61F80E48093BA1FEBC0809111
S11351B0CE1F9091CF1F009731F00E945416109289
S11351C0CF1F1092CE1F8091CC1F9091CD1F0E94B3
S11351D0D90D882361F08091BB1F80638093BB1F2E
S11351E081E090E09093BE1F8093BD1F09C0809121
S11351F0BB1F80618093BB1F1092BE1F1092BD1F06
S113520080E48093BA1FBEC01092C71F1092C61FBD
S113521080E28093BB1F81E090E09093BE1F809357
S1135220BD1F80E48093BA1FADC081E090E09093ED
S1135230BE1F8093BD1F80E48093BA1FA3C081E08A
S113524090E09093BE1F8093BD1FE091D01FF0911A
S1135250D11F3097F9F08091C41F9091C51F20850C
S1135260318582179307B0F48091C41F9091C51FB4
S11352702091BB00E80FF91F22878091C41F9091F1
S1135280C51F01969093C51F8093C41F80E480932B
S1135290BA1F78C080E28093BB1F80E48093BA1F5A
S11352A071C08091D01F9091D11F892B41F0109231
S11352B0D11F1092D01F1092C51F1092C41F80E1FD
S11352C08093BB1F1092BE1F1092BD1F80E4809379
S11352D0BA1F58C084ED9DE09F938F931ED3809195
S11352E0CE1F9091CF1F0F900F90009731F00E9426
S11352F054161092CF1F1092CE1F8091D01F909100
S1135300D11F009731F00E9454161092D11F1092B1
S1135310D01F0CEB10E0F8011082C091B90020916D
S1135320C01F3091C11FA0EDB7E022D29B01AC0198
S113533060E074E284EF90E0F1D1CA01B9016850F1
S1135340710981099109C370CC0F21E030E002C0DA
S1135350220F331FCA95E2F7032E000C440B550BA2
S1135360DDD12093B8008091BF1F880F8093BA00CD
S113537085E4F801808380E48093BA1F1092BE1FF5
S11353801092BD1F8091BB1F8568ECEBF0E0808319
S113539090818091BA1F892B80838091BC1F8130BA
S11353A011F40E94FB09FF91EF91CF91BF91AF914E
S11353B09F918F917F916F915F914F913F912F9129
S11353C01F910F910F900BBE0F900FBE0F901F9067
S11353D01895CF93C82F873061F420912C203091F9
S11353E02D2047E050E061E070E08DEB93E053D274
S11353F00BC08A3011F48DE0ECDFE0ECF0E080814A
S113540085FFFDCFC093C60080E090E0CF91089562
S11354106F927F928F929F92AF92BF92CF92DF92C0
S1135420EF92FF920F931F93CF93DF932091242049
S113543030912520232B09F0CCC08C010F2EF4EDE4
S11354408F2EFFE19F2EF02DC0ECD0E00F2EF6EC56
S1135450CF2ED12CF02D54010F2EF3ED6F2EFFE142
S11354607F2EF02D88818823ECF7888184FDC4C0C9
S1135470888183FDC4C0F60180818D3011F08A30AB
S113548061F48AE0F4018083B801A3DF84ED9FE135
S113549090932520809324209CC0893039F090EE8D
S11354A0980F9F3520F0803AA8F001C080E2F3E223
S11354B08F16F0E29F0621F4B80187E08ADFD2CF8D
S11354C074019FEFE91AF90AF4018083B80181DFBE
S11354D04701C8CF8231B9F130F4833009F492C066
S11354E08830E9F0BFCF873129F08F37C1F085319B
S11354F079F0B8CFF4ED8F16FFE19F0609F008F4B8
S1135500B1CFF40131978081803209F04AC0AACF2B
S113551084ED88168FE1980609F070F5A3CF94ED19
S113552089169FE1990609F008F49CCFB80188E038
S113553050DFB80180E24DDFB80188E04ADFE1E0E6
S11355408E1A91088FCFB8018DE043DFF4ED8F16EA
S1135550FFE19F0609F008F485CF0F2EF4EDEF2E3E
S1135560FFE1FF2EF02DB801F70181917F0131DFBA
S11355708E149F04C1F776CFB80188E02ADFB80102
S113558080E227DFB80188E024DFF1E08F1A910878
S113559084ED88168FE1980679F7F30131964F016F
S11355A061CF7401F1E0EF1AF108B80188E011DF6E
S11355B0B80180E20EDFB80188E00BDF4701EA148E
S11355C0FB0409F44FCFF70182917F01803269F720
S11355D049CFE0912420F0912520CF0101969093AA
S11355E025208093242080818A3021F41092252064
S11355F01092242090E008C08EEF9FEF05C08FEF3B
S11356009FEF02C08FEF9FEFDF91CF911F910F911A
S1135610FF90EF90DF90CF90BF90AF909F908F90CE
S11356207F906F9008951092C50080E18093C4002C
S113563088E18093C10086E08093C200E8E2F0E252
S113564081E792E09183808393838283089552D08B
S1135650EADF89E69EE09F938F935FD16CE271E06D
S113566082E090E00E94CD1481E00E94651C40E934
S113567051E060E070E081E0E6D82FEF4BE052E0CB
S113568065E082E078D961E070E084EF91E010D8C1
S1135690BDD986E69EE09F938F933FD1E12CF12CF8
S11356A001E020E030E044E650E065EC73E086ED94
S11356B095E20E94790E0F2EF6E2EF2EF0E2FF2E15
S11356C0F02D05E020E030E04AEF50E06EED73E0AD
S11356D08EED95E20E94790E89E39EE09F938F936D
S11356E01CD10E94D50F0F900F900F900F900F9028
S11356F00F90FFCF089597FB072E16F4009406D061
S113570077FD08D044D007FC05D03EF490958195F0
S11357109F4F0895709561957F4F0895A1E21A2EC9
S1135720AA1BBB1BFD010DC0AA1FBB1FEE1FFF1F41
S1135730A217B307E407F50720F0A21BB30BE40B91
S1135740F50B661F771F881F991F1A9469F76095D8
S11357507095809590959B01AC01BD01CF01089592
S1135760EE0FFF1F881F8BBF0790F691E02D199451
S1135770A29FB001B39FC001A39F700D811D11248E
S1135780911DB29F700D811D1124911D0895AA1BB6
S1135790BB1B51E107C0AA1FBB1FA617B70710F018
S11357A0A61BB70B881F991F5A95A9F7809590954A
S11357B0BC01CD0108958F929F92AF92BF92CF9278
S11357C0DF92EF92FF92CF93DF93EC0168817981AE
S11357D08A819B81611571058105910521F464E23B
S11357E079ED8BE597E02DE133EF41E050E06CD3A8
S11357F049015A019B01AC01A7EAB1E481D36B01D1
S11358007C01ACEEB4EFA501940186D3DC01CB019D
S11358108C0D9D1DAE1DBF1DB7FF03C00197A109CF
S1135820B04888839983AA83BB839F77DF91CF9104
S1135830FF90EF90DF90CF90BF90AF909F908F90AC
S11358400895B9CF80E092E0B6CFA0E0B0E08093B5
S1135850000290930102A0930202B0930302089500
S1135860FB01DC0102C001900D9241505040D8F779
S11358700895DC0101C06D9341505040E0F7089554
S1135880FC016150704001900110D8F7809590950B
S11358908E0F9F1F08958F929F92AF92BF92CF92C7
S11358A0DF92EF92FF920F931F93CF93DF935B01ED
S11358B04A017901D90113962C9121FF1DC0C0E042
S11358C0D0E0C815D905D9F08C016C01CA0CDB1CD9
S11358D0C8010C151D0571F00F5F1F4FD7011896F5
S11358E0ED91FC911997B701DC018C911995892BE5
S11358F079F305C02196E5CF80E090E001C0CE01A8
S1135900DF91CF911F910F91FF90EF90DF90CF9097
S1135910BF90AF909F908F9008950F931F93CF9354
S1135920DF93CDB7DEB7AE01485F5F4FDA016D910B
S11359307D91AD0108E210E2F80182819381DC01DE
S113594013962C911397286013962C931BD0D8018F
S11359501296ED91FC9113972381277F2383DF9186
S1135960CF911F910F910895CF93DF93EC018B8119
S113597088608B83CE0106D02B81277F2B83DF9118
S1135980CF9108952F923F924F925F926F927F92A0
S11359908F929F92AF92BF92CF92DF92EF92FF923B
S11359A00F931F93CF93DF93CDB7DEB72B970FB62B
S11359B0F894DEBF0FBECDBF6C017B018A01FC01F0
S11359C017821682838181FFBFC1CE0101963C01FB
S11359D0F6019381F70193FD859193FF81917F01F6
S11359E0882309F4ADC1853239F493FD859193FF81
S11359F081917F01853221F4B60190E0CBD1E8CFCB
S1135A00912C212C312CFFE1F315D8F08B3279F055
S1135A1038F4803279F08332A1F4232D20611DC043
S1135A208D3261F0803369F4232D216016C0832DFB
S1135A308260382EE32DE4603E2E2AC0F32DF860F8
S1135A401DC037FC2DC020ED280F2A3040F08E32C7
S1135A50B9F436FC75C1232D2064322E19C036FEEC
S1135A6006C08AE0989E200D1124922E11C0EAE00F
S1135A702E9E200D1124222EF32DF0623F2E08C0FD
S1135A808C3621F4832D8068382E02C0883641F488
S1135A90F70193FD859193FF81917F018111B3CF2C
S1135AA0982F9F7D9554933028F40C5F1F4F9FE3EC
S1135AB099830DC0833631F0833771F0833509F053
S1135AC055C020C0F801808189830E5F1F4F882450
S1135AD08394912C530112C02801F2E04F0E511C03
S1135AE0F801A080B18036FE03C0692D70E002C0C9
S1135AF06FEF7FEFC501C4DE4C018201F32DFF7708
S1135B003F2E15C0280122E0420E511CF801A0804E
S1135B10B18036FE03C0692D70E002C06FEF7FEFE5
S1135B20C5012DD14C01F32DF0683F2E820133FCC9
S1135B3019C0822D90E088169906A0F4B60180E27F
S1135B4090E028D12A94F5CFF50137FC859137FEF2
S1135B5081915F01B60190E01DD121102A9421E0CA
S1135B60821A91088114910479F7E1C0843611F006
S1135B70893639F5F80137FE07C060817181828169
S1135B8093810C5F1F4F08C060817181072E000C48
S1135B90880B990B0E5F1F4FF32DFF763F2E97FF57
S1135BA009C090958095709561957F4F8F4F9F4F59
S1135BB0F0683F2E2AE030E0A30128D1882E861811
S1135BC044C0853731F4232D2F7EB22E2AE030E0F5
S1135BD025C0932D997FB92E8F36C1F018F48835DE
S1135BE079F0AEC0803719F0883721F0A9C0E92FC9
S1135BF0E061BE2EB4FE0DC0FB2DF460BF2E09C0C3
S1135C0034FE0AC0292F2660B22E06C028E030E0F8
S1135C1005C020E130E002C020E132E0F801B7FE27
S1135C2007C060817181828193810C5F1F4F06C020
S1135C306081718180E090E00E5F1F4FA301E6D088
S1135C40882E8618FB2DFF773F2E36FE0DC0232DA0
S1135C502E7FA22E891458F434FE0BC032FC09C0E6
S1135C60832D8E7EA82E05C0B82CA32C03C0B82C7F
S1135C7001C0B92CA4FE0FC0FE01E80DF11D808106
S1135C80803321F49A2D997EA92E09C0A2FE06C064
S1135C90B394B39404C08A2D867809F0B394A3FC1A
S1135CA010C0A0FE06C0B21480F4280C922C9B18DD
S1135CB00DC0B21458F4B60180E290E06BD0B394F6
S1135CC0F8CFB21418F42B1802C0982C212CA4FE7F
S1135CD00FC0B60180E390E05DD0A2FE16C0A1FC27
S1135CE003C088E790E002C088E590E0B6010CC0EC
